:100123007B007A007908E4FF1202EC7B007A007905
:10013300407F011202EC7B007A0079187F021202E1
:10014300EC7B007A0079287F031202EC7B007A00B3
:1001530079387F041202EC7B007A0079307F051234
:1001630002EC7B007A0079107F061202EC7B007AA6
:080173000079207F070202EC75
:1001CC00EF60047E0680027E038E63EF60047F077F
:1001DC0080027F058F647D07E4FF1203E5E4FF12C4
:1001EC0004327F011204327F021204327D077F0138
:1001FC001203E5AF631204327F04120432AF6402BF
:02020C000432BA
:10031900E4F56212042F120123120427AF621201BD
:10032900CC7FF47E01120362E56270047F018002D2
:060339007F008F6280E6E8
:0F03F500EF1FAC0670011E4C6004000080F22266
:10036200EF1FAA0670011E4A6013E4FCFDC3ED9460
:0D03720072EC940050EA0DBD00010C80F00B
:01037F00225B
:10017B00080810181C1E1F00000008400000001F7C
:10018B001F00000008180103070F1F0000000828BC
:10019B00000E1B1B0E000000083800040E0A110095
:1001AB0000000830000E1B1B0E00000008100000A2
:1001BB001F0000000000082000001F0000000000CE
:06040400C2A58F80D2A703
:08040A007F027EEFDEFEDFFC45
:0104120022C7
:0A041300C2A6120404C2A702040AE4
:10038000CFCDCFCECCCE1200427C007D0A120042EF
:04039000ED2430FF29
:0A039400D2A6120404C2A702040A54
:1003BB00AE07BE0104ED148006BE0209ED243F44D6
:0603CB0080FF1204132262
:1003D1007F381204137F0C1204137F061204137F5B
:0403E10001020413FE
:0A041D00AC031203BBAF040203940A
:06033F008B668A678968E5
:100345001203BBE4FDAB66AA67A9688D82758300BD
:0C035500120003FF60061203940D80E903
:010361002279
:0C02B9007F0AEA24FFFDE434FFFC7E0015
:0802C5008E5E8F5F8C608D617D
:1002CD007F017E00E4FBEBC39561E5606480F8740B
:0E02DD008098500AAC5EAD5F1200300B80E8D6
:0102EB0022F0
:04039E008A518B52A3
:1003A2001203BBAA53EAD39400400D1202B9AC5116
:0803B200AD521203801A80ED28
:0103BA002220
:10020E001203BBC3EA64809480400B7F2B120394CD
:10021E008A4D8B4E800E7F2D120394C3E49BF54EB8
:10022E00E49AF54DAA4CEAD39400400D1202B9ACF3
:09023E004DAD4E1203801A80ED53
:010247002294
:040248008A568B57F0
:10024C001203BBAA58EAD3940040297F101202BBB8
:10025C00AC56AD57CFCDCFCECCCE120042EF540F13
:10026C00FEC3940AEE5004243080022437FF12039C
:04027C00941A80D17F
:01028000225B
:040281008A5B8B5CAD
:100285001203BBAA5DEAD394004028EA24FFFDE4EB
:1002950034FFFC7F027E001202C5AC5BAD5CCFCDA6
:1002A500CFCECCCE120042EF54012430FF1203947E
:0302B5001A80D2DA
:0102B8002223
:03042F000203D1F4
:080427007F0112041302040A14
:1003E500EF7003ED8003ED24404480FF12041322D7
:030432000203942E
:0602EC008B638A64896542
:1002F200EF540733333354F84440FF120413E4FD40
:10030200AB63AA64A9658D82758300120003FF1294
:0603120003940DBD08EA92
:0103180022C2
:0300000002009764
:0C009700787FE4F6D8FD7581680200DE79
:10000300BB010CE58229F582E5833AF583E02250B2
:1000130006E92582F8E622BBFE06E92582F8E222FC
:0D002300E58229F582E5833AF583E4932216
:10003000EF8DF0A4A8F0CF8CF0A428CE8DF0A42EE4
:02004000FE229E
:10004200BC000BBE0029EF8DF084FFADF022E4CCA2
:10005200F875F008EF2FFFEE33FEEC33FCEE9DEC6B
:10006200984005FCEE9DFE0FD5F0E9E4CEFD22EDB1
:10007200F8F5F0EE8420D21CFEADF075F008EF2FFB
:10008200FFED33FD4007985006D5F0F222C398FDEC
:050092000FD5F0EA2289
:1000A300020319E493A3F8E493A34003F68001F257
:1000B30008DFF48029E493A3F85407240CC8C3335E
:1000C300C4540F4420C8834004F456800146F6DF2D
:1000D300E4800B010204081020408090017BE47E41
:1000E300019360BCA3FF543F30E509541FFEE49322
:1000F300A360010ECF54C025E060A840B8E493A3E9
:10010300FAE493A3F8E493A3C8C582C8CAC583CA13
:10011300F0A3C8C582C8CAC583CADFE9DEE780BECB
:0101CB000033
:00000001FF
